{
  "contractName": "NFTFarm",
  "abi": [
    {
      "inputs": [
        {
          "internalType": "uint256",
          "name": "_emissionRate",
          "type": "uint256"
        },
        {
          "internalType": "contract DaiToken",
          "name": "_token",
          "type": "address"
        },
        {
          "internalType": "contract Crops",
          "name": "_crops",
          "type": "address"
        }
      ],
      "stateMutability": "nonpayable",
      "type": "constructor"
    },
    {
      "anonymous": false,
      "inputs": [
        {
          "indexed": true,
          "internalType": "address",
          "name": "previousOwner",
          "type": "address"
        },
        {
          "indexed": true,
          "internalType": "address",
          "name": "newOwner",
          "type": "address"
        }
      ],
      "name": "OwnershipTransferred",
      "type": "event"
    },
    {
      "inputs": [],
      "name": "crops",
      "outputs": [
        {
          "internalType": "contract Crops",
          "name": "",
          "type": "address"
        }
      ],
      "stateMutability": "view",
      "type": "function",
      "constant": true
    },
    {
      "inputs": [],
      "name": "emissionRate",
      "outputs": [
        {
          "internalType": "uint256",
          "name": "",
          "type": "uint256"
        }
      ],
      "stateMutability": "view",
      "type": "function",
      "constant": true
    },
    {
      "inputs": [
        {
          "internalType": "uint256",
          "name": "",
          "type": "uint256"
        }
      ],
      "name": "nftInfo",
      "outputs": [
        {
          "internalType": "uint256",
          "name": "id",
          "type": "uint256"
        },
        {
          "internalType": "uint256",
          "name": "remaining",
          "type": "uint256"
        },
        {
          "internalType": "uint256",
          "name": "price",
          "type": "uint256"
        }
      ],
      "stateMutability": "view",
      "type": "function",
      "constant": true
    },
    {
      "inputs": [
        {
          "internalType": "address",
          "name": "",
          "type": "address"
        },
        {
          "internalType": "address",
          "name": "",
          "type": "address"
        },
        {
          "internalType": "uint256[]",
          "name": "",
          "type": "uint256[]"
        },
        {
          "internalType": "uint256[]",
          "name": "",
          "type": "uint256[]"
        },
        {
          "internalType": "bytes",
          "name": "",
          "type": "bytes"
        }
      ],
      "name": "onERC1155BatchReceived",
      "outputs": [
        {
          "internalType": "bytes4",
          "name": "",
          "type": "bytes4"
        }
      ],
      "stateMutability": "nonpayable",
      "type": "function"
    },
    {
      "inputs": [
        {
          "internalType": "address",
          "name": "",
          "type": "address"
        },
        {
          "internalType": "address",
          "name": "",
          "type": "address"
        },
        {
          "internalType": "uint256",
          "name": "",
          "type": "uint256"
        },
        {
          "internalType": "uint256",
          "name": "",
          "type": "uint256"
        },
        {
          "internalType": "bytes",
          "name": "",
          "type": "bytes"
        }
      ],
      "name": "onERC1155Received",
      "outputs": [
        {
          "internalType": "bytes4",
          "name": "",
          "type": "bytes4"
        }
      ],
      "stateMutability": "nonpayable",
      "type": "function"
    },
    {
      "inputs": [],
      "name": "owner",
      "outputs": [
        {
          "internalType": "address",
          "name": "",
          "type": "address"
        }
      ],
      "stateMutability": "view",
      "type": "function",
      "constant": true
    },
    {
      "inputs": [],
      "name": "renounceOwnership",
      "outputs": [],
      "stateMutability": "nonpayable",
      "type": "function"
    },
    {
      "inputs": [
        {
          "internalType": "bytes4",
          "name": "interfaceId",
          "type": "bytes4"
        }
      ],
      "name": "supportsInterface",
      "outputs": [
        {
          "internalType": "bool",
          "name": "",
          "type": "bool"
        }
      ],
      "stateMutability": "view",
      "type": "function",
      "constant": true
    },
    {
      "inputs": [],
      "name": "token",
      "outputs": [
        {
          "internalType": "contract DaiToken",
          "name": "",
          "type": "address"
        }
      ],
      "stateMutability": "view",
      "type": "function",
      "constant": true
    },
    {
      "inputs": [
        {
          "internalType": "address",
          "name": "newOwner",
          "type": "address"
        }
      ],
      "name": "transferOwnership",
      "outputs": [],
      "stateMutability": "nonpayable",
      "type": "function"
    },
    {
      "inputs": [
        {
          "internalType": "address",
          "name": "",
          "type": "address"
        }
      ],
      "name": "userInfo",
      "outputs": [
        {
          "internalType": "uint256",
          "name": "stakedAmount",
          "type": "uint256"
        },
        {
          "internalType": "uint256",
          "name": "lastUpdateAt",
          "type": "uint256"
        },
        {
          "internalType": "uint256",
          "name": "pointsDebt",
          "type": "uint256"
        }
      ],
      "stateMutability": "view",
      "type": "function",
      "constant": true
    },
    {
      "inputs": [
        {
          "internalType": "uint256[]",
          "name": "_ids",
          "type": "uint256[]"
        },
        {
          "internalType": "uint256[]",
          "name": "_totals",
          "type": "uint256[]"
        },
        {
          "internalType": "uint256[]",
          "name": "_prices",
          "type": "uint256[]"
        }
      ],
      "name": "addNFTs",
      "outputs": [],
      "stateMutability": "nonpayable",
      "type": "function"
    },
    {
      "inputs": [
        {
          "internalType": "uint256",
          "name": "_amount",
          "type": "uint256"
        }
      ],
      "name": "stakeTokens",
      "outputs": [],
      "stateMutability": "nonpayable",
      "type": "function"
    },
    {
      "inputs": [
        {
          "internalType": "uint256[]",
          "name": "_nftIndexes",
          "type": "uint256[]"
        },
        {
          "internalType": "uint256[]",
          "name": "_quantities",
          "type": "uint256[]"
        }
      ],
      "name": "claimNFTs",
      "outputs": [],
      "stateMutability": "nonpayable",
      "type": "function"
    },
    {
      "inputs": [],
      "name": "unstakeTokens",
      "outputs": [],
      "stateMutability": "nonpayable",
      "type": "function"
    },
    {
      "inputs": [
        {
          "internalType": "address",
          "name": "userAddress",
          "type": "address"
        }
      ],
      "name": "pointsBalance",
      "outputs": [
        {
          "internalType": "uint256",
          "name": "",
          "type": "uint256"
        }
      ],
      "stateMutability": "view",
      "type": "function",
      "constant": true
    },
    {
      "inputs": [],
      "name": "nftCount",
      "outputs": [
        {
          "internalType": "uint256",
          "name": "",
          "type": "uint256"
        }
      ],
      "stateMutability": "view",
      "type": "function",
      "constant": true
    }
  ],
  "bytecode": "0x60806040523480156200001157600080fd5b50604051620022de380380620022de8339818101604052810190620000379190620002b3565b620000576200004b620000e960201b60201c565b620000f160201b60201c565b8260018190555081600260006101000a81548173ffffffffffffffffffffffffffffffffffffffff021916908373ffffffffffffffffffffffffffffffffffffffff16021790555080600360006101000a81548173ffffffffffffffffffffffffffffffffffffffff021916908373ffffffffffffffffffffffffffffffffffffffff1602179055505050506200030f565b600033905090565b60008060009054906101000a900473ffffffffffffffffffffffffffffffffffffffff169050816000806101000a81548173ffffffffffffffffffffffffffffffffffffffff021916908373ffffffffffffffffffffffffffffffffffffffff1602179055508173ffffffffffffffffffffffffffffffffffffffff168173ffffffffffffffffffffffffffffffffffffffff167f8be0079c531659141344cd1fd0a4f28419497f9722a3daafe3b4186f6b6457e060405160405180910390a35050565b600080fd5b6000819050919050565b620001cf81620001ba565b8114620001db57600080fd5b50565b600081519050620001ef81620001c4565b92915050565b600073ffffffffffffffffffffffffffffffffffffffff82169050919050565b60006200022282620001f5565b9050919050565b6000620002368262000215565b9050919050565b620002488162000229565b81146200025457600080fd5b50565b60008151905062000268816200023d565b92915050565b60006200027b8262000215565b9050919050565b6200028d816200026e565b81146200029957600080fd5b50565b600081519050620002ad8162000282565b92915050565b600080600060608486031215620002cf57620002ce620001b5565b5b6000620002df86828701620001de565b9350506020620002f28682870162000257565b925050604062000305868287016200029c565b9150509250925092565b611fbf806200031f6000396000f3fe608060405234801561001057600080fd5b506004361061010b5760003560e01c8063715018a6116100a2578063a5ce413b11610071578063a5ce413b146102aa578063bc197c81146102b4578063f23a6e61146102e4578063f2fde38b14610314578063fc0c546a146103305761010b565b8063715018a6146102485780637547c7a3146102525780638da5cb5b1461026e57806396afc4501461028c5761010b565b806323c9bc52116100de57806323c9bc52146101c257806325ca4cff146101e05780634b427e6414610210578063574e700f1461022c5761010b565b806301ffc9a7146101105780630af2c6ca146101405780631959a0021461015e5780631f8bc79014610190575b600080fd5b61012a600480360381019061012591906111b7565b61034e565b60405161013791906111ff565b60405180910390f35b6101486103c8565b6040516101559190611233565b60405180910390f35b610178600480360381019061017391906112ac565b6103d5565b604051610187939291906112d9565b60405180910390f35b6101aa60048036038101906101a5919061133c565b6103ff565b6040516101b9939291906112d9565b60405180910390f35b6101ca610439565b6040516101d791906113c8565b60405180910390f35b6101fa60048036038101906101f591906112ac565b61045f565b6040516102079190611233565b60405180910390f35b61022a60048036038101906102259190611448565b6104ec565b005b610246600480360381019061024191906114c9565b610864565b005b610250610ad2565b005b61026c6004803603810190610267919061133c565b610b5a565b005b610276610c86565b604051610283919061158c565b60405180910390f35b610294610caf565b6040516102a19190611233565b60405180910390f35b6102b2610cb5565b005b6102ce60048036038101906102c991906117ab565b610e98565b6040516102db9190611889565b60405180910390f35b6102fe60048036038101906102f991906118a4565b610ead565b60405161030b9190611889565b60405180910390f35b61032e600480360381019061032991906112ac565b610ec2565b005b610338610fba565b604051610345919061195c565b60405180910390f35b60007f4e2312e0000000000000000000000000000000000000000000000000000000007bffffffffffffffffffffffffffffffffffffffffffffffffffffffff1916827bffffffffffffffffffffffffffffffffffffffffffffffffffffffff191614806103c157506103c082610fe0565b5b9050919050565b6000600480549050905090565b60056020528060005260406000206000915090508060000154908060010154908060020154905083565b6004818154811061040f57600080fd5b90600052602060002090600302016000915090508060000154908060010154908060020154905083565b600360009054906101000a900473ffffffffffffffffffffffffffffffffffffffff1681565b600080600560008473ffffffffffffffffffffffffffffffffffffffff1673ffffffffffffffffffffffffffffffffffffffff16815260200190815260200160002090506104d581604051806060016040529081600082015481526020016001820154815260200160028201548152505061104a565b81600201546104e491906119a6565b915050919050565b818190508484905014610534576040517f08c379a000000000000000000000000000000000000000000000000000000000815260040161052b90611a59565b60405180910390fd5b60005b848490508167ffffffffffffffff1610156107c6576000600486868467ffffffffffffffff1681811061056d5761056c611a79565b5b905060200201358154811061058557610584611a79565b5b90600052602060002090600302019050600084848467ffffffffffffffff168181106105b4576105b3611a79565b5b9050602002013582600201546105ca9190611aa8565b905060006105d73361045f565b905085858567ffffffffffffffff168181106105f6576105f5611a79565b5b90506020020135836001015411610642576040517f08c379a000000000000000000000000000000000000000000000000000000000815260040161063990611b4e565b60405180910390fd5b81811015610685576040517f08c379a000000000000000000000000000000000000000000000000000000000815260040161067c90611bba565b60405180910390fd5b6000600560003373ffffffffffffffffffffffffffffffffffffffff1673ffffffffffffffffffffffffffffffffffffffff1681526020019081526020016000206040518060600160405290816000820154815260200160018201548152602001600282015481525050905082826106fd9190611bda565b8160400181815250504281602001818152505080600560003373ffffffffffffffffffffffffffffffffffffffff1673ffffffffffffffffffffffffffffffffffffffff16815260200190815260200160002060008201518160000155602082015181600101556040820151816002015590505086868667ffffffffffffffff1681811061078e5761078d611a79565b5b905060200201358460010160008282546107a89190611bda565b925050819055505050505080806107be90611c22565b915050610537565b50600360009054906101000a900473ffffffffffffffffffffffffffffffffffffffff1673ffffffffffffffffffffffffffffffffffffffff16632eb2c2d63033878787876040518763ffffffff1660e01b815260040161082c96959493929190611cfc565b600060405180830381600087803b15801561084657600080fd5b505af115801561085a573d6000803e3d6000fd5b5050505050505050565b61086c61107f565b73ffffffffffffffffffffffffffffffffffffffff1661088a610c86565b73ffffffffffffffffffffffffffffffffffffffff16146108e0576040517f08c379a00000000000000000000000000000000000000000000000000000000081526004016108d790611db2565b60405180910390fd5b838390508686905014806108f957508181905084849050145b610938576040517f08c379a000000000000000000000000000000000000000000000000000000000815260040161092f90611a59565b60405180910390fd5b600360009054906101000a900473ffffffffffffffffffffffffffffffffffffffff1673ffffffffffffffffffffffffffffffffffffffff16632eb2c2d63330898989896040518763ffffffff1660e01b815260040161099d96959493929190611cfc565b600060405180830381600087803b1580156109b757600080fd5b505af11580156109cb573d6000803e3d6000fd5b5050505060005b868690508167ffffffffffffffff161015610ac9576004604051806060016040528089898567ffffffffffffffff16818110610a1157610a10611a79565b5b90506020020135815260200187878567ffffffffffffffff16818110610a3a57610a39611a79565b5b90506020020135815260200185858567ffffffffffffffff16818110610a6357610a62611a79565b5b90506020020135815250908060018154018082558091505060019003906000526020600020906003020160009091909190915060008201518160000155602082015181600101556040820151816002015550508080610ac190611c22565b9150506109d2565b50505050505050565b610ada61107f565b73ffffffffffffffffffffffffffffffffffffffff16610af8610c86565b73ffffffffffffffffffffffffffffffffffffffff1614610b4e576040517f08c379a0000000000000000000000000000000000000000000000000000000008152600401610b4590611db2565b60405180910390fd5b610b586000611087565b565b600260009054906101000a900473ffffffffffffffffffffffffffffffffffffffff1673ffffffffffffffffffffffffffffffffffffffff166323b872dd3330846040518463ffffffff1660e01b8152600401610bb993929190611dd2565b6020604051808303816000875af1158015610bd8573d6000803e3d6000fd5b505050506040513d601f19601f82011682018060405250810190610bfc9190611e35565b506000600560003373ffffffffffffffffffffffffffffffffffffffff1673ffffffffffffffffffffffffffffffffffffffff16815260200190815260200160002090506000816000015414610c5e57610c553361045f565b81600201819055505b81816000016000828254610c7291906119a6565b925050819055504281600101819055505050565b60008060009054906101000a900473ffffffffffffffffffffffffffffffffffffffff16905090565b60015481565b6000600560003373ffffffffffffffffffffffffffffffffffffffff1673ffffffffffffffffffffffffffffffffffffffff168152602001908152602001600020604051806060016040529081600082015481526020016001820154815260200160028201548152505090506000816000015111610d68576040517f08c379a0000000000000000000000000000000000000000000000000000000008152600401610d5f90611eae565b60405180910390fd5b600260009054906101000a900473ffffffffffffffffffffffffffffffffffffffff1673ffffffffffffffffffffffffffffffffffffffff1663a9059cbb3383600001516040518363ffffffff1660e01b8152600401610dc9929190611ece565b6020604051808303816000875af1158015610de8573d6000803e3d6000fd5b505050506040513d601f19601f82011682018060405250810190610e0c9190611e35565b50610e163361045f565b81604001818152505060008160000181815250504281602001818152505080600560003373ffffffffffffffffffffffffffffffffffffffff1673ffffffffffffffffffffffffffffffffffffffff16815260200190815260200160002060008201518160000155602082015181600101556040820151816002015590505050565b600063bc197c8160e01b905095945050505050565b600063f23a6e6160e01b905095945050505050565b610eca61107f565b73ffffffffffffffffffffffffffffffffffffffff16610ee8610c86565b73ffffffffffffffffffffffffffffffffffffffff1614610f3e576040517f08c379a0000000000000000000000000000000000000000000000000000000008152600401610f3590611db2565b60405180910390fd5b600073ffffffffffffffffffffffffffffffffffffffff168173ffffffffffffffffffffffffffffffffffffffff161415610fae576040517f08c379a0000000000000000000000000000000000000000000000000000000008152600401610fa590611f69565b60405180910390fd5b610fb781611087565b50565b600260009054906101000a900473ffffffffffffffffffffffffffffffffffffffff1681565b60007f01ffc9a7000000000000000000000000000000000000000000000000000000007bffffffffffffffffffffffffffffffffffffffffffffffffffffffff1916827bffffffffffffffffffffffffffffffffffffffffffffffffffffffff1916149050919050565b6000816000015160015461105e9190611aa8565b82602001514261106e9190611bda565b6110789190611aa8565b9050919050565b600033905090565b60008060009054906101000a900473ffffffffffffffffffffffffffffffffffffffff169050816000806101000a81548173ffffffffffffffffffffffffffffffffffffffff021916908373ffffffffffffffffffffffffffffffffffffffff1602179055508173ffffffffffffffffffffffffffffffffffffffff168173ffffffffffffffffffffffffffffffffffffffff167f8be0079c531659141344cd1fd0a4f28419497f9722a3daafe3b4186f6b6457e060405160405180910390a35050565b6000604051905090565b600080fd5b600080fd5b60007fffffffff0000000000000000000000000000000000000000000000000000000082169050919050565b6111948161115f565b811461119f57600080fd5b50565b6000813590506111b18161118b565b92915050565b6000602082840312156111cd576111cc611155565b5b60006111db848285016111a2565b91505092915050565b60008115159050919050565b6111f9816111e4565b82525050565b600060208201905061121460008301846111f0565b92915050565b6000819050919050565b61122d8161121a565b82525050565b60006020820190506112486000830184611224565b92915050565b600073ffffffffffffffffffffffffffffffffffffffff82169050919050565b60006112798261124e565b9050919050565b6112898161126e565b811461129457600080fd5b50565b6000813590506112a681611280565b92915050565b6000602082840312156112c2576112c1611155565b5b60006112d084828501611297565b91505092915050565b60006060820190506112ee6000830186611224565b6112fb6020830185611224565b6113086040830184611224565b949350505050565b6113198161121a565b811461132457600080fd5b50565b60008135905061133681611310565b92915050565b60006020828403121561135257611351611155565b5b600061136084828501611327565b91505092915050565b6000819050919050565b600061138e6113896113848461124e565b611369565b61124e565b9050919050565b60006113a082611373565b9050919050565b60006113b282611395565b9050919050565b6113c2816113a7565b82525050565b60006020820190506113dd60008301846113b9565b92915050565b600080fd5b600080fd5b600080fd5b60008083601f840112611408576114076113e3565b5b8235905067ffffffffffffffff811115611425576114246113e8565b5b602083019150836020820283011115611441576114406113ed565b5b9250929050565b6000806000806040858703121561146257611461611155565b5b600085013567ffffffffffffffff8111156114805761147f61115a565b5b61148c878288016113f2565b9450945050602085013567ffffffffffffffff8111156114af576114ae61115a565b5b6114bb878288016113f2565b925092505092959194509250565b600080600080600080606087890312156114e6576114e5611155565b5b600087013567ffffffffffffffff8111156115045761150361115a565b5b61151089828a016113f2565b9650965050602087013567ffffffffffffffff8111156115335761153261115a565b5b61153f89828a016113f2565b9450945050604087013567ffffffffffffffff8111156115625761156161115a565b5b61156e89828a016113f2565b92509250509295509295509295565b6115868161126e565b82525050565b60006020820190506115a1600083018461157d565b92915050565b6000601f19601f8301169050919050565b7f4e487b7100000000000000000000000000000000000000000000000000000000600052604160045260246000fd5b6115f0826115a7565b810181811067ffffffffffffffff8211171561160f5761160e6115b8565b5b80604052505050565b600061162261114b565b905061162e82826115e7565b919050565b600067ffffffffffffffff82111561164e5761164d6115b8565b5b602082029050602081019050919050565b600061167261166d84611633565b611618565b90508083825260208201905060208402830185811115611695576116946113ed565b5b835b818110156116be57806116aa8882611327565b845260208401935050602081019050611697565b5050509392505050565b600082601f8301126116dd576116dc6113e3565b5b81356116ed84826020860161165f565b91505092915050565b600080fd5b600067ffffffffffffffff821115611716576117156115b8565b5b61171f826115a7565b9050602081019050919050565b82818337600083830152505050565b600061174e611749846116fb565b611618565b90508281526020810184848401111561176a576117696116f6565b5b61177584828561172c565b509392505050565b600082601f830112611792576117916113e3565b5b81356117a284826020860161173b565b91505092915050565b600080600080600060a086880312156117c7576117c6611155565b5b60006117d588828901611297565b95505060206117e688828901611297565b945050604086013567ffffffffffffffff8111156118075761180661115a565b5b611813888289016116c8565b935050606086013567ffffffffffffffff8111156118345761183361115a565b5b611840888289016116c8565b925050608086013567ffffffffffffffff8111156118615761186061115a565b5b61186d8882890161177d565b9150509295509295909350565b6118838161115f565b82525050565b600060208201905061189e600083018461187a565b92915050565b600080600080600060a086880312156118c0576118bf611155565b5b60006118ce88828901611297565b95505060206118df88828901611297565b94505060406118f088828901611327565b935050606061190188828901611327565b925050608086013567ffffffffffffffff8111156119225761192161115a565b5b61192e8882890161177d565b9150509295509295909350565b600061194682611395565b9050919050565b6119568161193b565b82525050565b6000602082019050611971600083018461194d565b92915050565b7f4e487b7100000000000000000000000000000000000000000000000000000000600052601160045260246000fd5b60006119b18261121a565b91506119bc8361121a565b9250827fffffffffffffffffffffffffffffffffffffffffffffffffffffffffffffffff038211156119f1576119f0611977565b5b828201905092915050565b600082825260208201905092915050565b7f496e636f7272656374206172726179206c656e67746800000000000000000000600082015250565b6000611a436016836119fc565b9150611a4e82611a0d565b602082019050919050565b60006020820190508181036000830152611a7281611a36565b9050919050565b7f4e487b7100000000000000000000000000000000000000000000000000000000600052603260045260246000fd5b6000611ab38261121a565b9150611abe8361121a565b9250817fffffffffffffffffffffffffffffffffffffffffffffffffffffffffffffffff0483118215151615611af757611af6611977565b5b828202905092915050565b7f4e6f7420656e6f756768204e46542063726f707320696e206661726d00000000600082015250565b6000611b38601c836119fc565b9150611b4382611b02565b602082019050919050565b60006020820190508181036000830152611b6781611b2b565b9050919050565b7f496e73756666696369656e7420506f696e747300000000000000000000000000600082015250565b6000611ba46013836119fc565b9150611baf82611b6e565b602082019050919050565b60006020820190508181036000830152611bd381611b97565b9050919050565b6000611be58261121a565b9150611bf08361121a565b925082821015611c0357611c02611977565b5b828203905092915050565b600067ffffffffffffffff82169050919050565b6000611c2d82611c0e565b915067ffffffffffffffff821415611c4857611c47611977565b5b600182019050919050565b600082825260208201905092915050565b600080fd5b6000611c758385611c53565b93507f07ffffffffffffffffffffffffffffffffffffffffffffffffffffffffffffff831115611ca857611ca7611c64565b5b602083029250611cb983858461172c565b82840190509392505050565b600082825260208201905092915050565b50565b6000611ce6600083611cc5565b9150611cf182611cd6565b600082019050919050565b600060a082019050611d11600083018961157d565b611d1e602083018861157d565b8181036040830152611d31818688611c69565b90508181036060830152611d46818486611c69565b90508181036080830152611d5981611cd9565b9050979650505050505050565b7f4f776e61626c653a2063616c6c6572206973206e6f7420746865206f776e6572600082015250565b6000611d9c6020836119fc565b9150611da782611d66565b602082019050919050565b60006020820190508181036000830152611dcb81611d8f565b9050919050565b6000606082019050611de7600083018661157d565b611df4602083018561157d565b611e016040830184611224565b949350505050565b611e12816111e4565b8114611e1d57600080fd5b50565b600081519050611e2f81611e09565b92915050565b600060208284031215611e4b57611e4a611155565b5b6000611e5984828501611e20565b91505092915050565b7f7374616b696e672062616c616e63652063616e6e6f7420626520300000000000600082015250565b6000611e98601b836119fc565b9150611ea382611e62565b602082019050919050565b60006020820190508181036000830152611ec781611e8b565b9050919050565b6000604082019050611ee3600083018561157d565b611ef06020830184611224565b9392505050565b7f4f776e61626c653a206e6577206f776e657220697320746865207a65726f206160008201527f6464726573730000000000000000000000000000000000000000000000000000602082015250565b6000611f536026836119fc565b9150611f5e82611ef7565b604082019050919050565b60006020820190508181036000830152611f8281611f46565b905091905056fea2646970667358221220dd330388ed64d8ab4387ebb95c73ac1c3dbc91d34de0ddf0397f04830190244d64736f6c634300080c0033",
  "immutableReferences": {},
  "source": "// SPDX-License-Identifier: MIT\npragma solidity ^0.8.10;\nimport \"./DaiToken.sol\";\nimport \"./Crops.sol\";\nimport \"@openzeppelin/contracts/access/Ownable.sol\";\nimport \"@openzeppelin/contracts/token/ERC1155/utils/ERC1155Holder.sol\";\n\ncontract NFTFarm is Ownable, ERC1155Holder {\n\n    struct UserInfo {\n        uint256 stakedAmount;   // current amount of tokens staked \n        uint256 lastUpdateAt;   // timestamp for last details update (when pointsDebt calculated)\n        uint256 pointsDebt;     // total wei points collected before latest deposit. \n    }\n    \n    struct NFTInfo {\n        uint256 id;             // NFT id\n        uint256 remaining;      // NFTs remaining to farm\n        uint256 price;          // points required to claim NFT\n    }\n    \n    uint256 public emissionRate;             // wei points (1 point = 10**18) generated per token per second staked\n    DaiToken public token;                   // mock dai token being staked\n    Crops public crops;                      // ERC-1155 NFT crops contract\n    \n    NFTInfo[] public nftInfo;\n    mapping(address => UserInfo) public userInfo;\n    \n    constructor(uint256 _emissionRate, DaiToken _token, Crops _crops) {\n        emissionRate = _emissionRate;\n        token = _token;\n        crops = _crops;\n    }\n    \n    function addNFTs(\n        uint256[] calldata _ids,\n        uint256[] calldata _totals,              // amount of NFTs deposited to farm (need to approve before)\n        uint256[] calldata _prices\n    ) external onlyOwner {\n        require(_ids.length == _totals.length || _totals.length == _prices.length, \"Incorrect array length\");\n        crops.safeBatchTransferFrom(\n            msg.sender,\n            address(this),\n            _ids,\n            _totals, \n            \"\"\n        );\n        for(uint64 i=0; i< _ids.length; i++) {\n            nftInfo.push(NFTInfo({\n                id: _ids[i],\n                remaining: _totals[i],\n                price: _prices[i]\n            }));\n        }\n    }\n    \n    function stakeTokens(uint256 _amount) external {\n        token.transferFrom(\n            msg.sender,\n            address(this),\n            _amount\n        );\n        \n        UserInfo storage user = userInfo[msg.sender];\n        \n        // already deposited before\n        if(user.stakedAmount != 0) {\n            user.pointsDebt = pointsBalance(msg.sender);\n        }\n        user.stakedAmount += _amount;\n        user.lastUpdateAt = block.timestamp;\n    }\n    \n    // claim nfts if points threshold reached\n    function claimNFTs(uint256[] calldata _nftIndexes, uint256[] calldata _quantities) external {\n        require(_nftIndexes.length == _quantities.length, \"Incorrect array length\");\n        for(uint64 i=0; i< _nftIndexes.length; i++) {\n            NFTInfo storage nft = nftInfo[_nftIndexes[i]];\n            uint256 cost = nft.price * _quantities[i];\n            uint256 points = pointsBalance(msg.sender);\n            require(nft.remaining > _quantities[i], \"Not enough NFT crops in farm\");\n            require(points >= cost, \"Insufficient Points\");\n            UserInfo memory user = userInfo[msg.sender];            \n            // deduct points\n            user.pointsDebt = points - cost;\n            user.lastUpdateAt = block.timestamp;\n            userInfo[msg.sender] = user;\n            nft.remaining -= _quantities[i];\n        }\n        crops.safeBatchTransferFrom(\n            address(this),\n            msg.sender,\n            _nftIndexes,\n            _quantities, \n            \"\"\n        );\n    }\n    \n    function unstakeTokens() public {\n        UserInfo memory user = userInfo[msg.sender];\n        require(user.stakedAmount > 0, \"staking balance cannot be 0\");\n        \n        token.transfer(\n            msg.sender,\n            user.stakedAmount\n        );\n\n        // update userInfo\n        user.pointsDebt = pointsBalance(msg.sender);\n        user.stakedAmount = 0;\n        user.lastUpdateAt = block.timestamp;\n        userInfo[msg.sender] = user;\n    }\n    \n    function pointsBalance(address userAddress) public view returns (uint256) {\n        UserInfo storage user = userInfo[userAddress];\n        return (user.pointsDebt + (_unDebitedPoints(user)));\n    }\n    \n    function _unDebitedPoints(UserInfo memory user) internal view returns (uint256) {\n        return (block.timestamp - user.lastUpdateAt) * (emissionRate * user.stakedAmount);\n    }\n    \n    function nftCount() public view returns (uint256) {\n        return nftInfo.length;\n    }\n\n}\n",
  "sourcePath": "/Users/ethancemer/Documents/nft_farm/src/contracts/NFTFarm.sol",
  "compiler": {
    "name": "solc",
    "version": "0.8.12+commit.f00d7308.Emscripten.clang"
  },
  "schemaVersion": "3.4.4",
  "updatedAt": "2022-02-16T18:29:13.513Z",
  "networkType": "ethereum",
  "devdoc": {
    "kind": "dev",
    "methods": {
      "owner()": {
        "details": "Returns the address of the current owner."
      },
      "renounceOwnership()": {
        "details": "Leaves the contract without owner. It will not be possible to call `onlyOwner` functions anymore. Can only be called by the current owner. NOTE: Renouncing ownership will leave the contract without an owner, thereby removing any functionality that is only available to the owner."
      },
      "supportsInterface(bytes4)": {
        "details": "See {IERC165-supportsInterface}."
      },
      "transferOwnership(address)": {
        "details": "Transfers ownership of the contract to a new account (`newOwner`). Can only be called by the current owner."
      }
    },
    "version": 1
  },
  "userdoc": {
    "kind": "user",
    "methods": {},
    "version": 1
  }
}